{
  "address": "0x1B47F98160411a8d96D76f2cc842Fa595d359394",
  "abi": [
    {
      "inputs": [],
      "name": "NotAuthorized",
      "type": "error"
    },
    {
      "inputs": [],
      "name": "UnequalArrayLengths",
      "type": "error"
    },
    {
      "anonymous": false,
      "inputs": [
        {
          "indexed": false,
          "internalType": "address",
          "name": "previousAdmin",
          "type": "address"
        },
        {
          "indexed": false,
          "internalType": "address",
          "name": "newAdmin",
          "type": "address"
        }
      ],
      "name": "AdminChanged",
      "type": "event"
    },
    {
      "anonymous": false,
      "inputs": [
        {
          "indexed": true,
          "internalType": "address",
          "name": "beacon",
          "type": "address"
        }
      ],
      "name": "BeaconUpgraded",
      "type": "event"
    },
    {
      "anonymous": false,
      "inputs": [
        {
          "indexed": false,
          "internalType": "address[]",
          "name": "tokenAddresses",
          "type": "address[]"
        },
        {
          "indexed": false,
          "internalType": "address[]",
          "name": "senders",
          "type": "address[]"
        },
        {
          "indexed": false,
          "internalType": "uint256[]",
          "name": "amounts",
          "type": "uint256[]"
        }
      ],
      "name": "ERC20TokensDeposited",
      "type": "event"
    },
    {
      "anonymous": false,
      "inputs": [
        {
          "indexed": false,
          "internalType": "address[]",
          "name": "tokenAddresses",
          "type": "address[]"
        },
        {
          "indexed": false,
          "internalType": "address[]",
          "name": "recipients",
          "type": "address[]"
        },
        {
          "indexed": false,
          "internalType": "uint256[]",
          "name": "amounts",
          "type": "uint256[]"
        }
      ],
      "name": "ERC20TokensWithdrawn",
      "type": "event"
    },
    {
      "anonymous": false,
      "inputs": [
        {
          "indexed": false,
          "internalType": "address[]",
          "name": "tokenAddresses",
          "type": "address[]"
        },
        {
          "indexed": false,
          "internalType": "address[]",
          "name": "senders",
          "type": "address[]"
        },
        {
          "indexed": false,
          "internalType": "uint256[]",
          "name": "tokenIds",
          "type": "uint256[]"
        }
      ],
      "name": "ERC721TokensDeposited",
      "type": "event"
    },
    {
      "anonymous": false,
      "inputs": [
        {
          "indexed": false,
          "internalType": "address[]",
          "name": "tokenAddresses",
          "type": "address[]"
        },
        {
          "indexed": false,
          "internalType": "address[]",
          "name": "recipients",
          "type": "address[]"
        },
        {
          "indexed": false,
          "internalType": "uint256[]",
          "name": "tokenIds",
          "type": "uint256[]"
        }
      ],
      "name": "ERC721TokensWithdrawn",
      "type": "event"
    },
    {
      "anonymous": false,
      "inputs": [
        {
          "indexed": false,
          "internalType": "address",
          "name": "sender",
          "type": "address"
        },
        {
          "indexed": false,
          "internalType": "uint256",
          "name": "amount",
          "type": "uint256"
        }
      ],
      "name": "EthDeposited",
      "type": "event"
    },
    {
      "anonymous": false,
      "inputs": [
        {
          "indexed": false,
          "internalType": "address[]",
          "name": "recipients",
          "type": "address[]"
        },
        {
          "indexed": false,
          "internalType": "uint256[]",
          "name": "amounts",
          "type": "uint256[]"
        }
      ],
      "name": "EthWithdrawn",
      "type": "event"
    },
    {
      "anonymous": false,
      "inputs": [
        {
          "indexed": true,
          "internalType": "address",
          "name": "implementation",
          "type": "address"
        }
      ],
      "name": "Upgraded",
      "type": "event"
    },
    {
      "inputs": [],
      "name": "accessControl",
      "outputs": [
        {
          "internalType": "contract IAccessControlDAO",
          "name": "",
          "type": "address"
        }
      ],
      "stateMutability": "view",
      "type": "function"
    },
    {
      "inputs": [
        {
          "internalType": "address[]",
          "name": "tokenAddresses",
          "type": "address[]"
        },
        {
          "internalType": "address[]",
          "name": "senders",
          "type": "address[]"
        },
        {
          "internalType": "uint256[]",
          "name": "amounts",
          "type": "uint256[]"
        }
      ],
      "name": "depositERC20Tokens",
      "outputs": [],
      "stateMutability": "nonpayable",
      "type": "function"
    },
    {
      "inputs": [
        {
          "internalType": "address[]",
          "name": "tokenAddresses",
          "type": "address[]"
        },
        {
          "internalType": "address[]",
          "name": "senders",
          "type": "address[]"
        },
        {
          "internalType": "uint256[]",
          "name": "tokenIds",
          "type": "uint256[]"
        }
      ],
      "name": "depositERC721Tokens",
      "outputs": [],
      "stateMutability": "nonpayable",
      "type": "function"
    },
    {
      "inputs": [
        {
          "internalType": "address",
          "name": "_accessControl",
          "type": "address"
        }
      ],
      "name": "initialize",
      "outputs": [],
      "stateMutability": "nonpayable",
      "type": "function"
    },
    {
      "inputs": [],
      "name": "moduleFactory",
      "outputs": [
        {
          "internalType": "address",
          "name": "",
          "type": "address"
        }
      ],
      "stateMutability": "view",
      "type": "function"
    },
    {
      "inputs": [],
      "name": "name",
      "outputs": [
        {
          "internalType": "string",
          "name": "",
          "type": "string"
        }
      ],
      "stateMutability": "view",
      "type": "function"
    },
    {
      "inputs": [
        {
          "internalType": "address",
          "name": "",
          "type": "address"
        },
        {
          "internalType": "address",
          "name": "",
          "type": "address"
        },
        {
          "internalType": "uint256",
          "name": "",
          "type": "uint256"
        },
        {
          "internalType": "bytes",
          "name": "",
          "type": "bytes"
        }
      ],
      "name": "onERC721Received",
      "outputs": [
        {
          "internalType": "bytes4",
          "name": "",
          "type": "bytes4"
        }
      ],
      "stateMutability": "nonpayable",
      "type": "function"
    },
    {
      "inputs": [],
      "name": "proxiableUUID",
      "outputs": [
        {
          "internalType": "bytes32",
          "name": "",
          "type": "bytes32"
        }
      ],
      "stateMutability": "view",
      "type": "function"
    },
    {
      "inputs": [
        {
          "internalType": "bytes4",
          "name": "interfaceId",
          "type": "bytes4"
        }
      ],
      "name": "supportsInterface",
      "outputs": [
        {
          "internalType": "bool",
          "name": "",
          "type": "bool"
        }
      ],
      "stateMutability": "view",
      "type": "function"
    },
    {
      "inputs": [
        {
          "internalType": "address",
          "name": "newImplementation",
          "type": "address"
        }
      ],
      "name": "upgradeTo",
      "outputs": [],
      "stateMutability": "nonpayable",
      "type": "function"
    },
    {
      "inputs": [
        {
          "internalType": "address",
          "name": "newImplementation",
          "type": "address"
        },
        {
          "internalType": "bytes",
          "name": "data",
          "type": "bytes"
        }
      ],
      "name": "upgradeToAndCall",
      "outputs": [],
      "stateMutability": "payable",
      "type": "function"
    },
    {
      "inputs": [
        {
          "internalType": "address[]",
          "name": "tokenAddresses",
          "type": "address[]"
        },
        {
          "internalType": "address[]",
          "name": "recipients",
          "type": "address[]"
        },
        {
          "internalType": "uint256[]",
          "name": "amounts",
          "type": "uint256[]"
        }
      ],
      "name": "withdrawERC20Tokens",
      "outputs": [],
      "stateMutability": "nonpayable",
      "type": "function"
    },
    {
      "inputs": [
        {
          "internalType": "address[]",
          "name": "tokenAddresses",
          "type": "address[]"
        },
        {
          "internalType": "address[]",
          "name": "recipients",
          "type": "address[]"
        },
        {
          "internalType": "uint256[]",
          "name": "tokenIds",
          "type": "uint256[]"
        }
      ],
      "name": "withdrawERC721Tokens",
      "outputs": [],
      "stateMutability": "nonpayable",
      "type": "function"
    },
    {
      "inputs": [
        {
          "internalType": "address[]",
          "name": "recipients",
          "type": "address[]"
        },
        {
          "internalType": "uint256[]",
          "name": "amounts",
          "type": "uint256[]"
        }
      ],
      "name": "withdrawEth",
      "outputs": [],
      "stateMutability": "nonpayable",
      "type": "function"
    },
    {
      "stateMutability": "payable",
      "type": "receive"
    }
  ],
  "transactionHash": "0xd1ea40107282c210eec2a8de573eb7745b29a09355e7bed63ab777529300177c",
  "args": [],
  "numDeployments": 1,
  "solcInputHash": "34e240790884a16156147304509f64bf",
  "bytecode": "0x60a06040523060805234801561001457600080fd5b50608051611f3661004c600039600081816105ab015281816105f401528181610693015281816106d301526107660152611f366000f3fe6080604052600436106100e15760003560e01c806352d1902d1161007f578063c20eaa1211610059578063c20eaa12146102b0578063c4d66de8146102d0578063ce3ebbad146102f0578063fb1d100e1461031057600080fd5b806352d1902d1461024d5780638991255b146102705780639ae6b5be1461029057600080fd5b8063150b7a02116100bb578063150b7a02146101b457806316633fa8146101f85780633659cfe61461021a5780634f1ef2861461023a57600080fd5b806301ffc9a71461012557806306fdde031461015a57806313007d551461017c57600080fd5b3661012057604080513381523460208201527f66ff7c8f71ccc7c36152a41920d0d3b46ef3034359f76aa1498ed4478c204b5c910160405180910390a1005b600080fd5b34801561013157600080fd5b50610145610140366004611883565b610330565b60405190151581526020015b60405180910390f35b34801561016657600080fd5b5061016f61035b565b60405161015191906118d9565b34801561018857600080fd5b5060655461019c906001600160a01b031681565b6040516001600160a01b039091168152602001610151565b3480156101c057600080fd5b506101df6101cf3660046119cb565b630a85bd0160e11b949350505050565b6040516001600160e01b03199091168152602001610151565b34801561020457600080fd5b50610218610213366004611a7f565b6103ed565b005b34801561022657600080fd5b50610218610235366004611b19565b6105a1565b610218610248366004611b34565b610689565b34801561025957600080fd5b50610262610759565b604051908152602001610151565b34801561027c57600080fd5b5060665461019c906001600160a01b031681565b34801561029c57600080fd5b506102186102ab366004611a7f565b61080c565b3480156102bc57600080fd5b506102186102cb366004611a7f565b610a0a565b3480156102dc57600080fd5b506102186102eb366004611b19565b610c08565b3480156102fc57600080fd5b5061021861030b366004611a7f565b610cf3565b34801561031c57600080fd5b5061021861032b366004611b82565b610e8b565b60006001600160e01b0319821663bf7ee64f60e01b148061035557506103558261101d565b92915050565b60606067805461036a90611bee565b80601f016020809104026020016040519081016040528092919081815260200182805461039690611bee565b80156103e35780601f106103b8576101008083540402835291602001916103e3565b820191906000526020600020905b8154815290600101906020018083116103c657829003601f168201915b5050505050905090565b6065546040516001623b410b60e21b031981526001600160a01b039091169063ff12fbd49061043090339030906001600160e01b03196000351690600401611c28565b602060405180830381865afa15801561044d573d6000803e3d6000fd5b505050506040513d601f19601f820116820180604052508101906104719190611c55565b61048e5760405163ea8e4eb560e01b815260040160405180910390fd5b848314158061049d5750848114155b156104bb576040516311e86f7360e01b815260040160405180910390fd5b8460005b81811015610556576105418686838181106104dc576104dc611c77565b90506020020160208101906104f19190611b19565b85858481811061050357610503611c77565b905060200201358a8a8581811061051c5761051c611c77565b90506020020160208101906105319190611b19565b6001600160a01b03169190611052565b6001018061054e81611c8d565b9150506104bf565b507f279ee69c859e439f9c0a143eba32e0a9c0dd4ccab6f0f0f7b5df1a4c73eb2f8f87878787878760405161059096959493929190611d31565b60405180910390a150505050505050565b6001600160a01b037f00000000000000000000000000000000000000000000000000000000000000001630036105f25760405162461bcd60e51b81526004016105e990611d7a565b60405180910390fd5b7f00000000000000000000000000000000000000000000000000000000000000006001600160a01b031661063b600080516020611eba833981519152546001600160a01b031690565b6001600160a01b0316146106615760405162461bcd60e51b81526004016105e990611dc6565b61066a816110ba565b604080516000808252602082019092526106869183919061115b565b50565b6001600160a01b037f00000000000000000000000000000000000000000000000000000000000000001630036106d15760405162461bcd60e51b81526004016105e990611d7a565b7f00000000000000000000000000000000000000000000000000000000000000006001600160a01b031661071a600080516020611eba833981519152546001600160a01b031690565b6001600160a01b0316146107405760405162461bcd60e51b81526004016105e990611dc6565b610749826110ba565b6107558282600161115b565b5050565b6000306001600160a01b037f000000000000000000000000000000000000000000000000000000000000000016146107f95760405162461bcd60e51b815260206004820152603860248201527f555550535570677261646561626c653a206d757374206e6f742062652063616c60448201527f6c6564207468726f7567682064656c656761746563616c6c000000000000000060648201526084016105e9565b50600080516020611eba83398151915290565b6065546040516001623b410b60e21b031981526001600160a01b039091169063ff12fbd49061084f90339030906001600160e01b03196000351690600401611c28565b602060405180830381865afa15801561086c573d6000803e3d6000fd5b505050506040513d601f19601f820116820180604052508101906108909190611c55565b6108ad5760405163ea8e4eb560e01b815260040160405180910390fd5b84831415806108bc5750848114155b156108da576040516311e86f7360e01b815260040160405180910390fd5b8460005b818110156109d0578787828181106108f8576108f8611c77565b905060200201602081019061090d9190611b19565b6001600160a01b03166342842e0e87878481811061092d5761092d611c77565b90506020020160208101906109429190611b19565b3087878681811061095557610955611c77565b6040516001600160e01b031960e088901b1681526001600160a01b03958616600482015294909316602485015250602090910201356044820152606401600060405180830381600087803b1580156109ac57600080fd5b505af11580156109c0573d6000803e3d6000fd5b5050600190920191506108de9050565b507f62e602fa7b8d1849d67c000a48e0e1d8a1046aadd78b524ffba8e69ad277f8b387878787878760405161059096959493929190611d31565b6065546040516001623b410b60e21b031981526001600160a01b039091169063ff12fbd490610a4d90339030906001600160e01b03196000351690600401611c28565b602060405180830381865afa158015610a6a573d6000803e3d6000fd5b505050506040513d601f19601f82011682018060405250810190610a8e9190611c55565b610aab5760405163ea8e4eb560e01b815260040160405180910390fd5b8483141580610aba5750848114155b15610ad8576040516311e86f7360e01b815260040160405180910390fd5b8460005b81811015610bce57878782818110610af657610af6611c77565b9050602002016020810190610b0b9190611b19565b6001600160a01b03166342842e0e30888885818110610b2c57610b2c611c77565b9050602002016020810190610b419190611b19565b878786818110610b5357610b53611c77565b6040516001600160e01b031960e088901b1681526001600160a01b03958616600482015294909316602485015250602090910201356044820152606401600060405180830381600087803b158015610baa57600080fd5b505af1158015610bbe573d6000803e3d6000fd5b505060019092019150610adc9050565b507f098a00c78513360f53ddec2fba6ff5cee156eeae8fcb72797988acb497611c0e87878787878760405161059096959493929190611d31565b600054610100900460ff16610c235760005460ff1615610c27565b303b155b610c8a5760405162461bcd60e51b815260206004820152602e60248201527f496e697469616c697a61626c653a20636f6e747261637420697320616c72656160448201526d191e481a5b9a5d1a585b1a5e995960921b60648201526084016105e9565b600054610100900460ff16158015610cac576000805461ffff19166101011790555b610cde82336040518060400160405280600f81526020016e5472656173757279204d6f64756c6560881b8152506112c6565b8015610755576000805461ff00191690555050565b6065546040516001623b410b60e21b031981526001600160a01b039091169063ff12fbd490610d3690339030906001600160e01b03196000351690600401611c28565b602060405180830381865afa158015610d53573d6000803e3d6000fd5b505050506040513d601f19601f82011682018060405250810190610d779190611c55565b610d945760405163ea8e4eb560e01b815260040160405180910390fd5b8483141580610da35750848114155b15610dc1576040516311e86f7360e01b815260040160405180910390fd5b8460005b81811015610e5157610e49868683818110610de257610de2611c77565b9050602002016020810190610df79190611b19565b30868685818110610e0a57610e0a611c77565b905060200201358b8b86818110610e2357610e23611c77565b9050602002016020810190610e389190611b19565b6001600160a01b0316929190611339565b600101610dc5565b507f057589822293e3f912f1d5b49bbcd6513212cf97ecd74bffc31d4178653fd70c87878787878760405161059096959493929190611d31565b6065546040516001623b410b60e21b031981526001600160a01b039091169063ff12fbd490610ece90339030906001600160e01b03196000351690600401611c28565b602060405180830381865afa158015610eeb573d6000803e3d6000fd5b505050506040513d601f19601f82011682018060405250810190610f0f9190611c55565b610f2c5760405163ea8e4eb560e01b815260040160405180910390fd5b828114610f4c576040516311e86f7360e01b815260040160405180910390fd5b8260005b81811015610fd857858582818110610f6a57610f6a611c77565b9050602002016020810190610f7f9190611b19565b6001600160a01b03166108fc858584818110610f9d57610f9d611c77565b905060200201359081150290604051600060405180830381858888f19350505050158015610fcf573d6000803e3d6000fd5b50600101610f50565b507fd8043a55fabd5bef5435dec665e02f814171964a1ee23b23df5796a997a78aa28585858560405161100e9493929190611e12565b60405180910390a15050505050565b60006001600160e01b031982166314026af160e01b148061035557506301ffc9a760e01b6001600160e01b0319831614610355565b6040516001600160a01b0383166024820152604481018290526110b590849063a9059cbb60e01b906064015b60408051601f198184030181529190526020810180516001600160e01b03166001600160e01b031990931692909217909152611377565b505050565b6065546040516001623b410b60e21b031981526001600160a01b039091169063ff12fbd4906110fd90339030906001600160e01b03196000351690600401611c28565b602060405180830381865afa15801561111a573d6000803e3d6000fd5b505050506040513d601f19601f8201168201806040525081019061113e9190611c55565b6106865760405163ea8e4eb560e01b815260040160405180910390fd5b7f4910fdfa16fed3260ed0e7147f7cc6da11a60208b5b9406d12a635614ffd91435460ff161561118e576110b583611449565b826001600160a01b03166352d1902d6040518163ffffffff1660e01b8152600401602060405180830381865afa9250505080156111e8575060408051601f3d908101601f191682019092526111e591810190611e39565b60015b61124b5760405162461bcd60e51b815260206004820152602e60248201527f45524331393637557067726164653a206e657720696d706c656d656e7461746960448201526d6f6e206973206e6f74205555505360901b60648201526084016105e9565b600080516020611eba83398151915281146112ba5760405162461bcd60e51b815260206004820152602960248201527f45524331393637557067726164653a20756e737570706f727465642070726f786044820152681a58589b195555525160ba1b60648201526084016105e9565b506110b58383836114e5565b600054610100900460ff166112ed5760405162461bcd60e51b81526004016105e990611e52565b606580546001600160a01b038086166001600160a01b031992831617909255606680549285169290911691909117905580516113309060679060208401906117ea565b506110b561150a565b6040516001600160a01b03808516602483015283166044820152606481018290526113719085906323b872dd60e01b9060840161107e565b50505050565b60006113cc826040518060400160405280602081526020017f5361666545524332303a206c6f772d6c6576656c2063616c6c206661696c6564815250856001600160a01b03166115339092919063ffffffff16565b8051909150156110b557808060200190518101906113ea9190611c55565b6110b55760405162461bcd60e51b815260206004820152602a60248201527f5361666545524332303a204552433230206f7065726174696f6e20646964206e6044820152691bdd081cdd58d8d9595960b21b60648201526084016105e9565b6001600160a01b0381163b6114b65760405162461bcd60e51b815260206004820152602d60248201527f455243313936373a206e657720696d706c656d656e746174696f6e206973206e60448201526c1bdd08184818dbdb9d1c9858dd609a1b60648201526084016105e9565b600080516020611eba83398151915280546001600160a01b0319166001600160a01b0392909216919091179055565b6114ee8361154c565b6000825111806114fb5750805b156110b557611371838361158c565b600054610100900460ff166115315760405162461bcd60e51b81526004016105e990611e52565b565b60606115428484600085611680565b90505b9392505050565b61155581611449565b6040516001600160a01b038216907fbc7cd75a20ee27fd9adebab32041f755214dbc6bffa90cc0225b39da2e5c2d3b90600090a250565b60606001600160a01b0383163b6115f45760405162461bcd60e51b815260206004820152602660248201527f416464726573733a2064656c65676174652063616c6c20746f206e6f6e2d636f6044820152651b9d1c9858dd60d21b60648201526084016105e9565b600080846001600160a01b03168460405161160f9190611e9d565b600060405180830381855af49150503d806000811461164a576040519150601f19603f3d011682016040523d82523d6000602084013e61164f565b606091505b50915091506116778282604051806060016040528060278152602001611eda602791396117b1565b95945050505050565b6060824710156116e15760405162461bcd60e51b815260206004820152602660248201527f416464726573733a20696e73756666696369656e742062616c616e636520666f6044820152651c8818d85b1b60d21b60648201526084016105e9565b6001600160a01b0385163b6117385760405162461bcd60e51b815260206004820152601d60248201527f416464726573733a2063616c6c20746f206e6f6e2d636f6e747261637400000060448201526064016105e9565b600080866001600160a01b031685876040516117549190611e9d565b60006040518083038185875af1925050503d8060008114611791576040519150601f19603f3d011682016040523d82523d6000602084013e611796565b606091505b50915091506117a68282866117b1565b979650505050505050565b606083156117c0575081611545565b8251156117d05782518084602001fd5b8160405162461bcd60e51b81526004016105e991906118d9565b8280546117f690611bee565b90600052602060002090601f016020900481019282611818576000855561185e565b82601f1061183157805160ff191683800117855561185e565b8280016001018555821561185e579182015b8281111561185e578251825591602001919060010190611843565b5061186a92915061186e565b5090565b5b8082111561186a576000815560010161186f565b60006020828403121561189557600080fd5b81356001600160e01b03198116811461154557600080fd5b60005b838110156118c85781810151838201526020016118b0565b838111156113715750506000910152565b60208152600082518060208401526118f88160408501602087016118ad565b601f01601f19169190910160400192915050565b80356001600160a01b038116811461192357600080fd5b919050565b634e487b7160e01b600052604160045260246000fd5b600082601f83011261194f57600080fd5b813567ffffffffffffffff8082111561196a5761196a611928565b604051601f8301601f19908116603f0116810190828211818310171561199257611992611928565b816040528381528660208588010111156119ab57600080fd5b836020870160208301376000602085830101528094505050505092915050565b600080600080608085870312156119e157600080fd5b6119ea8561190c565b93506119f86020860161190c565b925060408501359150606085013567ffffffffffffffff811115611a1b57600080fd5b611a278782880161193e565b91505092959194509250565b60008083601f840112611a4557600080fd5b50813567ffffffffffffffff811115611a5d57600080fd5b6020830191508360208260051b8501011115611a7857600080fd5b9250929050565b60008060008060008060608789031215611a9857600080fd5b863567ffffffffffffffff80821115611ab057600080fd5b611abc8a838b01611a33565b90985096506020890135915080821115611ad557600080fd5b611ae18a838b01611a33565b90965094506040890135915080821115611afa57600080fd5b50611b0789828a01611a33565b979a9699509497509295939492505050565b600060208284031215611b2b57600080fd5b6115458261190c565b60008060408385031215611b4757600080fd5b611b508361190c565b9150602083013567ffffffffffffffff811115611b6c57600080fd5b611b788582860161193e565b9150509250929050565b60008060008060408587031215611b9857600080fd5b843567ffffffffffffffff80821115611bb057600080fd5b611bbc88838901611a33565b90965094506020870135915080821115611bd557600080fd5b50611be287828801611a33565b95989497509550505050565b600181811c90821680611c0257607f821691505b602082108103611c2257634e487b7160e01b600052602260045260246000fd5b50919050565b6001600160a01b0393841681529190921660208201526001600160e01b0319909116604082015260600190565b600060208284031215611c6757600080fd5b8151801515811461154557600080fd5b634e487b7160e01b600052603260045260246000fd5b600060018201611cad57634e487b7160e01b600052601160045260246000fd5b5060010190565b8183526000602080850194508260005b85811015611cf0576001600160a01b03611cdd8361190c565b1687529582019590820190600101611cc4565b509495945050505050565b81835260006001600160fb1b03831115611d1457600080fd5b8260051b8083602087013760009401602001938452509192915050565b606081526000611d4560608301888a611cb4565b8281036020840152611d58818789611cb4565b90508281036040840152611d6d818587611cfb565b9998505050505050505050565b6020808252602c908201527f46756e6374696f6e206d7573742062652063616c6c6564207468726f7567682060408201526b19195b1959d85d1958d85b1b60a21b606082015260800190565b6020808252602c908201527f46756e6374696f6e206d7573742062652063616c6c6564207468726f7567682060408201526b6163746976652070726f787960a01b606082015260800190565b604081526000611e26604083018688611cb4565b82810360208401526117a6818587611cfb565b600060208284031215611e4b57600080fd5b5051919050565b6020808252602b908201527f496e697469616c697a61626c653a20636f6e7472616374206973206e6f74206960408201526a6e697469616c697a696e6760a81b606082015260800190565b60008251611eaf8184602087016118ad565b919091019291505056fe360894a13ba1a3210667c828492db98dca3e2076cc3735a920a3ca505d382bbc416464726573733a206c6f772d6c6576656c2064656c65676174652063616c6c206661696c6564a26469706673582212203210e41e05a3b4394828a4eacee6d64303768e3eac9d7bee67871ea0f959f4d664736f6c634300080d0033",
  "devdoc": {
    "kind": "dev",
    "methods": {
      "depositERC20Tokens(address[],address[],uint256[])": {
        "params": {
          "amounts": "Array of amounts of the ERC-20 token that will be transferred",
          "senders": "Array of addresses that the ERC-20 token will be transferred from",
          "tokenAddresses": "Array of token contract addresses"
        }
      },
      "depositERC721Tokens(address[],address[],uint256[])": {
        "params": {
          "senders": "Array of addresses that the ERC-721 tokens will be transferred from",
          "tokenAddresses": "Array of token contract addresses",
          "tokenIds": "Array of amounts of the ERC-20 token that will be transferred "
        }
      },
      "initialize(address)": {
        "params": {
          "_accessControl": "The address of the access control contract"
        }
      },
      "name()": {
        "returns": {
          "_0": "The module name"
        }
      },
      "onERC721Received(address,address,uint256,bytes)": {
        "details": "See {IERC721Receiver-onERC721Received}. Always returns `IERC721Receiver.onERC721Received.selector`."
      },
      "proxiableUUID()": {
        "details": "Implementation of the ERC1822 {proxiableUUID} function. This returns the storage slot used by the implementation. It is used to validate that the this implementation remains valid after an upgrade. IMPORTANT: A proxy pointing at a proxiable contract should not be considered proxiable itself, because this risks bricking a proxy that upgrades to it, by delegating to itself until out of gas. Thus it is critical that this function revert if invoked through a proxy. This is guaranteed by the `notDelegated` modifier."
      },
      "supportsInterface(bytes4)": {
        "params": {
          "interfaceId": "An interface ID bytes4 as defined by ERC-165"
        },
        "returns": {
          "_0": "bool Indicates whether the interface is supported"
        }
      },
      "upgradeTo(address)": {
        "details": "Upgrade the implementation of the proxy to `newImplementation`. Calls {_authorizeUpgrade}. Emits an {Upgraded} event."
      },
      "upgradeToAndCall(address,bytes)": {
        "details": "Upgrade the implementation of the proxy to `newImplementation`, and subsequently execute the function call encoded in `data`. Calls {_authorizeUpgrade}. Emits an {Upgraded} event."
      },
      "withdrawERC20Tokens(address[],address[],uint256[])": {
        "params": {
          "amounts": "Array of amounts of the ERC-20 token that will be transferred ",
          "recipients": "Array of addresses that the ERC-20 token will be transferred to",
          "tokenAddresses": "Array of token contract addresses"
        }
      },
      "withdrawERC721Tokens(address[],address[],uint256[])": {
        "params": {
          "recipients": "Array of addresses that the ERC-721 tokens will be transferred to",
          "tokenAddresses": "Array of token contract addresses",
          "tokenIds": "Array of amounts of the ERC-20 token that will be transferred "
        }
      },
      "withdrawEth(address[],uint256[])": {
        "params": {
          "amounts": "Array of amounts of ETH that will be withdrawnnn",
          "recipients": "Array of addresses that ETH will be withdrawn to"
        }
      }
    },
    "version": 1
  },
  "userdoc": {
    "kind": "user",
    "methods": {
      "depositERC20Tokens(address[],address[],uint256[])": {
        "notice": "Allows the owner to deposit ERC-20 tokens from multiple addresses"
      },
      "depositERC721Tokens(address[],address[],uint256[])": {
        "notice": "Allows the owner to deposit ERC-721 tokens from multiple addresses"
      },
      "initialize(address)": {
        "notice": "Function for initializing the contract that can only be called once"
      },
      "name()": {
        "notice": "Returns the module name"
      },
      "supportsInterface(bytes4)": {
        "notice": "Returns whether a given interface ID is supported"
      },
      "withdrawERC20Tokens(address[],address[],uint256[])": {
        "notice": "Allows the owner to withdraw ERC-20 tokens from multiple addresses"
      },
      "withdrawERC721Tokens(address[],address[],uint256[])": {
        "notice": "Allows the owner to withdraw ERC-721 tokens from multiple addresses"
      },
      "withdrawEth(address[],uint256[])": {
        "notice": "Allows the owner to withdraw ETH to multiple addresses"
      }
    },
    "notice": "A treasury module contract for managing a DAOs assets",
    "version": 1
  },
  "storageLayout": {
    "storage": [
      {
        "astId": 2190,
        "contract": "contracts/TreasuryModule.sol:TreasuryModule",
        "label": "_initialized",
        "offset": 0,
        "slot": "0",
        "type": "t_bool"
      },
      {
        "astId": 2193,
        "contract": "contracts/TreasuryModule.sol:TreasuryModule",
        "label": "_initializing",
        "offset": 1,
        "slot": "0",
        "type": "t_bool"
      },
      {
        "astId": 2172,
        "contract": "contracts/TreasuryModule.sol:TreasuryModule",
        "label": "__gap",
        "offset": 0,
        "slot": "1",
        "type": "t_array(t_uint256)50_storage"
      },
      {
        "astId": 2392,
        "contract": "contracts/TreasuryModule.sol:TreasuryModule",
        "label": "__gap",
        "offset": 0,
        "slot": "51",
        "type": "t_array(t_uint256)50_storage"
      },
      {
        "astId": 1229,
        "contract": "contracts/TreasuryModule.sol:TreasuryModule",
        "label": "accessControl",
        "offset": 0,
        "slot": "101",
        "type": "t_contract(IAccessControlDAO)1672"
      },
      {
        "astId": 1231,
        "contract": "contracts/TreasuryModule.sol:TreasuryModule",
        "label": "moduleFactory",
        "offset": 0,
        "slot": "102",
        "type": "t_address"
      },
      {
        "astId": 1233,
        "contract": "contracts/TreasuryModule.sol:TreasuryModule",
        "label": "_name",
        "offset": 0,
        "slot": "103",
        "type": "t_string_storage"
      }
    ],
    "types": {
      "t_address": {
        "encoding": "inplace",
        "label": "address",
        "numberOfBytes": "20"
      },
      "t_array(t_uint256)50_storage": {
        "base": "t_uint256",
        "encoding": "inplace",
        "label": "uint256[50]",
        "numberOfBytes": "1600"
      },
      "t_bool": {
        "encoding": "inplace",
        "label": "bool",
        "numberOfBytes": "1"
      },
      "t_contract(IAccessControlDAO)1672": {
        "encoding": "inplace",
        "label": "contract IAccessControlDAO",
        "numberOfBytes": "20"
      },
      "t_string_storage": {
        "encoding": "bytes",
        "label": "string",
        "numberOfBytes": "32"
      },
      "t_uint256": {
        "encoding": "inplace",
        "label": "uint256",
        "numberOfBytes": "32"
      }
    }
  }
}