{
  "address": "0x5067b7E6889AA0Ec4F34066c3c4f2F5f1677f73C",
  "abi": [
    {
      "inputs": [],
      "name": "NotAuthorized",
      "type": "error"
    },
    {
      "anonymous": false,
      "inputs": [
        {
          "indexed": true,
          "internalType": "bytes32",
          "name": "role",
          "type": "bytes32"
        },
        {
          "indexed": true,
          "internalType": "bytes32",
          "name": "previousAdminRole",
          "type": "bytes32"
        },
        {
          "indexed": true,
          "internalType": "bytes32",
          "name": "newAdminRole",
          "type": "bytes32"
        }
      ],
      "name": "RoleAdminChanged",
      "type": "event"
    },
    {
      "anonymous": false,
      "inputs": [
        {
          "indexed": true,
          "internalType": "bytes32",
          "name": "role",
          "type": "bytes32"
        },
        {
          "indexed": true,
          "internalType": "address",
          "name": "account",
          "type": "address"
        },
        {
          "indexed": true,
          "internalType": "address",
          "name": "sender",
          "type": "address"
        }
      ],
      "name": "RoleGranted",
      "type": "event"
    },
    {
      "anonymous": false,
      "inputs": [
        {
          "indexed": true,
          "internalType": "bytes32",
          "name": "role",
          "type": "bytes32"
        },
        {
          "indexed": true,
          "internalType": "address",
          "name": "account",
          "type": "address"
        },
        {
          "indexed": true,
          "internalType": "address",
          "name": "sender",
          "type": "address"
        }
      ],
      "name": "RoleRevoked",
      "type": "event"
    },
    {
      "anonymous": false,
      "inputs": [
        {
          "indexed": true,
          "internalType": "address",
          "name": "treasuryAddress",
          "type": "address"
        },
        {
          "indexed": true,
          "internalType": "address",
          "name": "accessControl",
          "type": "address"
        }
      ],
      "name": "TreasuryCreated",
      "type": "event"
    },
    {
      "anonymous": false,
      "inputs": [
        {
          "indexed": false,
          "internalType": "string",
          "name": "semanticVersion",
          "type": "string"
        },
        {
          "indexed": false,
          "internalType": "string",
          "name": "frontendURI",
          "type": "string"
        },
        {
          "indexed": false,
          "internalType": "address",
          "name": "impl",
          "type": "address"
        }
      ],
      "name": "VersionCreated",
      "type": "event"
    },
    {
      "inputs": [],
      "name": "DEFAULT_ADMIN_ROLE",
      "outputs": [
        {
          "internalType": "bytes32",
          "name": "",
          "type": "bytes32"
        }
      ],
      "stateMutability": "view",
      "type": "function"
    },
    {
      "inputs": [],
      "name": "VERSION_ROLE",
      "outputs": [
        {
          "internalType": "bytes32",
          "name": "",
          "type": "bytes32"
        }
      ],
      "stateMutability": "view",
      "type": "function"
    },
    {
      "inputs": [
        {
          "internalType": "string",
          "name": "_semanticVersion",
          "type": "string"
        },
        {
          "internalType": "string",
          "name": "_frontendURI",
          "type": "string"
        },
        {
          "internalType": "address",
          "name": "_impl",
          "type": "address"
        }
      ],
      "name": "addVersion",
      "outputs": [],
      "stateMutability": "nonpayable",
      "type": "function"
    },
    {
      "inputs": [
        {
          "internalType": "bytes[]",
          "name": "data",
          "type": "bytes[]"
        }
      ],
      "name": "create",
      "outputs": [
        {
          "internalType": "address[]",
          "name": "",
          "type": "address[]"
        }
      ],
      "stateMutability": "nonpayable",
      "type": "function"
    },
    {
      "inputs": [
        {
          "internalType": "bytes32",
          "name": "role",
          "type": "bytes32"
        }
      ],
      "name": "getRoleAdmin",
      "outputs": [
        {
          "internalType": "bytes32",
          "name": "",
          "type": "bytes32"
        }
      ],
      "stateMutability": "view",
      "type": "function"
    },
    {
      "inputs": [
        {
          "internalType": "bytes32",
          "name": "role",
          "type": "bytes32"
        },
        {
          "internalType": "address",
          "name": "account",
          "type": "address"
        }
      ],
      "name": "grantRole",
      "outputs": [],
      "stateMutability": "nonpayable",
      "type": "function"
    },
    {
      "inputs": [
        {
          "internalType": "bytes32",
          "name": "role",
          "type": "bytes32"
        },
        {
          "internalType": "address",
          "name": "account",
          "type": "address"
        }
      ],
      "name": "hasRole",
      "outputs": [
        {
          "internalType": "bool",
          "name": "",
          "type": "bool"
        }
      ],
      "stateMutability": "view",
      "type": "function"
    },
    {
      "inputs": [],
      "name": "initialize",
      "outputs": [],
      "stateMutability": "nonpayable",
      "type": "function"
    },
    {
      "inputs": [
        {
          "internalType": "bytes32",
          "name": "role",
          "type": "bytes32"
        },
        {
          "internalType": "address",
          "name": "account",
          "type": "address"
        }
      ],
      "name": "renounceRole",
      "outputs": [],
      "stateMutability": "nonpayable",
      "type": "function"
    },
    {
      "inputs": [
        {
          "internalType": "bytes32",
          "name": "role",
          "type": "bytes32"
        },
        {
          "internalType": "address",
          "name": "account",
          "type": "address"
        }
      ],
      "name": "revokeRole",
      "outputs": [],
      "stateMutability": "nonpayable",
      "type": "function"
    },
    {
      "inputs": [
        {
          "internalType": "bytes4",
          "name": "interfaceId",
          "type": "bytes4"
        }
      ],
      "name": "supportsInterface",
      "outputs": [
        {
          "internalType": "bool",
          "name": "",
          "type": "bool"
        }
      ],
      "stateMutability": "view",
      "type": "function"
    },
    {
      "inputs": [
        {
          "internalType": "uint256",
          "name": "",
          "type": "uint256"
        }
      ],
      "name": "versionControl",
      "outputs": [
        {
          "internalType": "string",
          "name": "semanticVersion",
          "type": "string"
        },
        {
          "internalType": "string",
          "name": "frontendURI",
          "type": "string"
        },
        {
          "internalType": "address",
          "name": "impl",
          "type": "address"
        }
      ],
      "stateMutability": "view",
      "type": "function"
    }
  ],
  "transactionHash": "0x395717abdb6d738eaf9988c2f7eaa72331d76e398f5f5d76eb64d70129256d52",
  "args": [],
  "numDeployments": 2,
  "solcInputHash": "43b68f4ae4a683863a3164e45e784f31",
  "bytecode": "0x608060405234801561001057600080fd5b50611cea806100206000396000f3fe60806040523480156200001157600080fd5b5060043610620000c35760003560e01c806391d14854116200007a57806391d14854146200017a578063a217fddf1462000191578063c5f5de32146200019a578063cacdc39814620001c2578063d547741f14620001e8578063d7bef6ce14620001ff57600080fd5b806301ffc9a714620000c8578063248a9ca314620000f45780632f2ff15d146200012957806336568abe14620001425780634d4a76f514620001595780638129fc1c1462000170575b600080fd5b620000df620000d936600462000fc0565b62000227565b60405190151581526020015b60405180910390f35b6200011a6200010536600462000fec565b60009081526020819052604090206001015490565b604051908152602001620000eb565b620001406200013a3660046200101c565b62000255565b005b62000140620001533660046200101c565b62000284565b620001406200016a3660046200109b565b6200030a565b6200014062000495565b620000df6200018b3660046200101c565b6200055e565b6200011a600081565b6200011a7f8b846e412507ce755c77f14c6ba4f1dbc2b4d7af9aeff432a8334bafc89c046281565b620001d9620001d336600462001128565b62000587565b604051620000eb9190620011a2565b62000140620001f93660046200101c565b62000844565b620002166200021036600462000fec565b6200086e565b604051620000eb9392919062001252565b60006001600160e01b0319821663433c3e6560e11b14806200024f57506200024f82620009d2565b92915050565b600082815260208190526040902060010154620002738133620009fa565b6200027f838362000a69565b505050565b6001600160a01b0381163314620002fa5760405162461bcd60e51b815260206004820152602f60248201527f416363657373436f6e74726f6c3a2063616e206f6e6c792072656e6f756e636560448201526e103937b632b9903337b91039b2b63360891b60648201526084015b60405180910390fd5b62000306828262000af1565b5050565b620003367f8b846e412507ce755c77f14c6ba4f1dbc2b4d7af9aeff432a8334bafc89c0462336200055e565b620003545760405163ea8e4eb560e01b815260040160405180910390fd5b6040805160806020601f88018190040282018101909252606081018681526002928291908990899081908501838280828437600092019190915250505090825250604080516020601f88018190048102820181019092528681529181019190879087908190840183828082843760009201829052509385525050506001600160a01b03851660209283015283546001810185559381528190208251805193946003029091019262000409928492019062000f0c565b50602082810151805162000424926001850192019062000f0c565b5060409182015160029190910180546001600160a01b0319166001600160a01b03909216919091179055517f55333c8005b89ec35427ce0dee089bf2afe5d50fd45f9afd62478d8c299f999990620004869087908790879087908790620012bd565b60405180910390a15050505050565b600154610100900460ff16620004b25760015460ff1615620004b6565b303b155b6200051b5760405162461bcd60e51b815260206004820152602e60248201527f496e697469616c697a61626c653a20636f6e747261637420697320616c72656160448201526d191e481a5b9a5d1a585b1a5e995960921b6064820152608401620002f1565b600154610100900460ff161580156200053e576001805461ffff19166101011790555b6200054862000b59565b80156200055b576001805461ff00191690555b50565b6000918252602082815260408084206001600160a01b0393909316845291905290205460ff1690565b6040805160018082528183019092526060916000919060208083019080368337019050509050600084846000818110620005c557620005c562001319565b9050602002810190620005d991906200132f565b810190620005e8919062001379565b905060008585600181811062000602576200060262001319565b90506020028101906200061691906200132f565b81019062000625919062001379565b90506000868660028181106200063f576200063f62001319565b90506020028101906200065391906200132f565b81019062000662919062000fec565b6040516bffffffffffffffffffffffff193260601b1660208201524660348201526054810182905290915062000727906000906074016040516020818303038152906040528051906020012060405180602001620006c09062000f9b565b601f1982820381018352601f9091011660408181526001600160a01b0388166020830152808201526000606082015260800160408051601f198184030181529082905262000712929160200162001399565b60405160208183030381529060405262000c01565b846000815181106200073d576200073d62001319565b60200260200101906001600160a01b031690816001600160a01b0316815250508360008151811062000773576200077362001319565b602090810291909101015160405163189acdbd60e31b81526001600160a01b0385811660048301529091169063c4d66de890602401600060405180830381600087803b158015620007c357600080fd5b505af1158015620007d8573d6000803e3d6000fd5b50505050826001600160a01b031684600081518110620007fc57620007fc62001319565b60200260200101516001600160a01b03167fc66508a0af5b2cb3ca1697705aa93e894f4df91a54f28fc74262b7cd544b103560405160405180910390a3509195945050505050565b600082815260208190526040902060010154620008628133620009fa565b6200027f838362000af1565b600281815481106200087f57600080fd5b9060005260206000209060030201600091509050806000018054620008a490620013cc565b80601f0160208091040260200160405190810160405280929190818152602001828054620008d290620013cc565b8015620009235780601f10620008f75761010080835404028352916020019162000923565b820191906000526020600020905b8154815290600101906020018083116200090557829003601f168201915b5050505050908060010180546200093a90620013cc565b80601f01602080910402602001604051908101604052809291908181526020018280546200096890620013cc565b8015620009b95780601f106200098d57610100808354040283529160200191620009b9565b820191906000526020600020905b8154815290600101906020018083116200099b57829003601f168201915b505050600290930154919250506001600160a01b031683565b60006001600160e01b0319821663433c3e6560e11b14806200024f57506200024f8262000d14565b62000a0682826200055e565b620003065762000a21816001600160a01b0316601462000d4b565b62000a2e83602062000d4b565b60405160200162000a4192919062001408565b60408051601f198184030181529082905262461bcd60e51b8252620002f19160040162001481565b62000a7582826200055e565b62000306576000828152602081815260408083206001600160a01b03851684529091529020805460ff1916600117905562000aad3390565b6001600160a01b0316816001600160a01b0316837f2f8788117e7eff1d82e926ec794901d17c78024a50270940304540a733656f0d60405160405180910390a45050565b62000afd82826200055e565b1562000306576000828152602081815260408083206001600160a01b0385168085529252808320805460ff1916905551339285917ff6391f5c32d9c69d2a47ea670b442974b53935d1edc7fd64eb21e047a839171b9190a45050565b600154610100900460ff1662000bc65760405162461bcd60e51b815260206004820152602b60248201527f496e697469616c697a61626c653a20636f6e7472616374206973206e6f74206960448201526a6e697469616c697a696e6760a81b6064820152608401620002f1565b62000bd360003362000a69565b62000bff7f8b846e412507ce755c77f14c6ba4f1dbc2b4d7af9aeff432a8334bafc89c04623362000a69565b565b6000808447101562000c565760405162461bcd60e51b815260206004820152601d60248201527f437265617465323a20696e73756666696369656e742062616c616e63650000006044820152606401620002f1565b825160000362000ca95760405162461bcd60e51b815260206004820181905260248201527f437265617465323a2062797465636f6465206c656e677468206973207a65726f6044820152606401620002f1565b8383516020850187f590506001600160a01b03811662000d0c5760405162461bcd60e51b815260206004820152601960248201527f437265617465323a204661696c6564206f6e206465706c6f79000000000000006044820152606401620002f1565b949350505050565b60006001600160e01b03198216637965db0b60e01b14806200024f57506301ffc9a760e01b6001600160e01b03198316146200024f565b6060600062000d5c836002620014ac565b62000d69906002620014ce565b67ffffffffffffffff81111562000d845762000d8462001303565b6040519080825280601f01601f19166020018201604052801562000daf576020820181803683370190505b509050600360fc1b8160008151811062000dcd5762000dcd62001319565b60200101906001600160f81b031916908160001a905350600f60fb1b8160018151811062000dff5762000dff62001319565b60200101906001600160f81b031916908160001a905350600062000e25846002620014ac565b62000e32906001620014ce565b90505b600181111562000eb4576f181899199a1a9b1b9c1cb0b131b232b360811b85600f166010811062000e6a5762000e6a62001319565b1a60f81b82828151811062000e835762000e8362001319565b60200101906001600160f81b031916908160001a90535060049490941c9362000eac81620014e9565b905062000e35565b50831562000f055760405162461bcd60e51b815260206004820181905260248201527f537472696e67733a20686578206c656e67746820696e73756666696369656e746044820152606401620002f1565b9392505050565b82805462000f1a90620013cc565b90600052602060002090601f01602090048101928262000f3e576000855562000f89565b82601f1062000f5957805160ff191683800117855562000f89565b8280016001018555821562000f89579182015b8281111562000f8957825182559160200191906001019062000f6c565b5062000f9792915062000fa9565b5090565b6107b1806200150483390190565b5b8082111562000f97576000815560010162000faa565b60006020828403121562000fd357600080fd5b81356001600160e01b03198116811462000f0557600080fd5b60006020828403121562000fff57600080fd5b5035919050565b6001600160a01b03811681146200055b57600080fd5b600080604083850312156200103057600080fd5b823591506020830135620010448162001006565b809150509250929050565b60008083601f8401126200106257600080fd5b50813567ffffffffffffffff8111156200107b57600080fd5b6020830191508360208285010111156200109457600080fd5b9250929050565b600080600080600060608688031215620010b457600080fd5b853567ffffffffffffffff80821115620010cd57600080fd5b620010db89838a016200104f565b90975095506020880135915080821115620010f557600080fd5b5062001104888289016200104f565b90945092505060408601356200111a8162001006565b809150509295509295909350565b600080602083850312156200113c57600080fd5b823567ffffffffffffffff808211156200115557600080fd5b818501915085601f8301126200116a57600080fd5b8135818111156200117a57600080fd5b8660208260051b85010111156200119057600080fd5b60209290920196919550909350505050565b6020808252825182820181905260009190848201906040850190845b81811015620011e55783516001600160a01b031683529284019291840191600101620011be565b50909695505050505050565b60005b838110156200120e578181015183820152602001620011f4565b838111156200121e576000848401525b50505050565b600081518084526200123e816020860160208601620011f1565b601f01601f19169290920160200192915050565b60608152600062001267606083018662001224565b82810360208401526200127b818662001224565b91505060018060a01b0383166040830152949350505050565b81835281816020850137506000828201602090810191909152601f909101601f19169091010190565b606081526000620012d360608301878962001294565b8281036020840152620012e881868862001294565b91505060018060a01b03831660408301529695505050505050565b634e487b7160e01b600052604160045260246000fd5b634e487b7160e01b600052603260045260246000fd5b6000808335601e198436030181126200134757600080fd5b83018035915067ffffffffffffffff8211156200136357600080fd5b6020019150368190038213156200109457600080fd5b6000602082840312156200138c57600080fd5b813562000f058162001006565b60008351620013ad818460208801620011f1565b835190830190620013c3818360208801620011f1565b01949350505050565b600181811c90821680620013e157607f821691505b6020821081036200140257634e487b7160e01b600052602260045260246000fd5b50919050565b7f416363657373436f6e74726f6c3a206163636f756e742000000000000000000081526000835162001442816017850160208801620011f1565b7001034b99036b4b9b9b4b733903937b6329607d1b601791840191820152835162001475816028840160208801620011f1565b01602801949350505050565b60208152600062000f05602083018462001224565b634e487b7160e01b600052601160045260246000fd5b6000816000190483118215151615620014c957620014c962001496565b500290565b60008219821115620014e457620014e462001496565b500190565b600081620014fb57620014fb62001496565b50600019019056fe60806040526040516107b13803806107b183398101604081905261002291610349565b61004d60017f360894a13ba1a3210667c828492db98dca3e2076cc3735a920a3ca505d382bbd610417565b60008051602061076a833981519152146100695761006961043c565b6100758282600061007c565b50506104a1565b610085836100b2565b6000825111806100925750805b156100ad576100ab83836100f260201b6100291760201c565b505b505050565b6100bb8161011e565b6040516001600160a01b038216907fbc7cd75a20ee27fd9adebab32041f755214dbc6bffa90cc0225b39da2e5c2d3b90600090a250565b6060610117838360405180606001604052806027815260200161078a602791396101de565b9392505050565b610131816102bc60201b6100551760201c565b6101985760405162461bcd60e51b815260206004820152602d60248201527f455243313936373a206e657720696d706c656d656e746174696f6e206973206e60448201526c1bdd08184818dbdb9d1c9858dd609a1b60648201526084015b60405180910390fd5b806101bd60008051602061076a83398151915260001b6102cb60201b6100641760201c565b80546001600160a01b0319166001600160a01b039290921691909117905550565b60606001600160a01b0384163b6102465760405162461bcd60e51b815260206004820152602660248201527f416464726573733a2064656c65676174652063616c6c20746f206e6f6e2d636f6044820152651b9d1c9858dd60d21b606482015260840161018f565b600080856001600160a01b0316856040516102619190610452565b600060405180830381855af49150503d806000811461029c576040519150601f19603f3d011682016040523d82523d6000602084013e6102a1565b606091505b5090925090506102b28282866102ce565b9695505050505050565b6001600160a01b03163b151590565b90565b606083156102dd575081610117565b8251156102ed5782518084602001fd5b8160405162461bcd60e51b815260040161018f919061046e565b634e487b7160e01b600052604160045260246000fd5b60005b83811015610338578181015183820152602001610320565b838111156100ab5750506000910152565b6000806040838503121561035c57600080fd5b82516001600160a01b038116811461037357600080fd5b60208401519092506001600160401b038082111561039057600080fd5b818501915085601f8301126103a457600080fd5b8151818111156103b6576103b6610307565b604051601f8201601f19908116603f011681019083821181831017156103de576103de610307565b816040528281528860208487010111156103f757600080fd5b61040883602083016020880161031d565b80955050505050509250929050565b60008282101561043757634e487b7160e01b600052601160045260246000fd5b500390565b634e487b7160e01b600052600160045260246000fd5b6000825161046481846020870161031d565b9190910192915050565b602081526000825180602084015261048d81604085016020870161031d565b601f01601f19169190910160400192915050565b6102ba806104b06000396000f3fe60806040523661001357610011610017565b005b6100115b610027610022610067565b61009f565b565b606061004e838360405180606001604052806027815260200161025e602791396100c3565b9392505050565b6001600160a01b03163b151590565b90565b600061009a7f360894a13ba1a3210667c828492db98dca3e2076cc3735a920a3ca505d382bbc546001600160a01b031690565b905090565b3660008037600080366000845af43d6000803e8080156100be573d6000f35b3d6000fd5b60606001600160a01b0384163b6101305760405162461bcd60e51b815260206004820152602660248201527f416464726573733a2064656c65676174652063616c6c20746f206e6f6e2d636f6044820152651b9d1c9858dd60d21b60648201526084015b60405180910390fd5b600080856001600160a01b03168560405161014b919061020e565b600060405180830381855af49150503d8060008114610186576040519150601f19603f3d011682016040523d82523d6000602084013e61018b565b606091505b509150915061019b8282866101a5565b9695505050505050565b606083156101b457508161004e565b8251156101c45782518084602001fd5b8160405162461bcd60e51b8152600401610127919061022a565b60005b838110156101f95781810151838201526020016101e1565b83811115610208576000848401525b50505050565b600082516102208184602087016101de565b9190910192915050565b60208152600082518060208401526102498160408501602087016101de565b601f01601f1916919091016040019291505056fe416464726573733a206c6f772d6c6576656c2064656c65676174652063616c6c206661696c6564a2646970667358221220c1396a395593415293023c3bc166734d52c4ee9136c6ff8eaef33568949ec5f064736f6c634300080d0033360894a13ba1a3210667c828492db98dca3e2076cc3735a920a3ca505d382bbc416464726573733a206c6f772d6c6576656c2064656c65676174652063616c6c206661696c6564a2646970667358221220c14f205b4fc171c189aeb6b4585fb5194dff11309e2e871df16f8099b09db5db64736f6c634300080d0033",
  "devdoc": {
    "kind": "dev",
    "methods": {
      "addVersion(string,string,address)": {
        "details": "add a new version to update module users",
        "params": {
          "_frontendURI": "IPFS hash of the static frontend",
          "_impl": "address of the impl",
          "_semanticVersion": "semantic version control"
        }
      },
      "create(bytes[])": {
        "details": "Creates a Treasury module",
        "params": {
          "data": "The array of bytes used to create the module"
        },
        "returns": {
          "_0": "address[] The array of addresses of the created module"
        }
      },
      "getRoleAdmin(bytes32)": {
        "details": "Returns the admin role that controls `role`. See {grantRole} and {revokeRole}. To change a role's admin, use {_setRoleAdmin}."
      },
      "grantRole(bytes32,address)": {
        "details": "Grants `role` to `account`. If `account` had not been already granted `role`, emits a {RoleGranted} event. Requirements: - the caller must have ``role``'s admin role."
      },
      "hasRole(bytes32,address)": {
        "details": "Returns `true` if `account` has been granted `role`."
      },
      "renounceRole(bytes32,address)": {
        "details": "Revokes `role` from the calling account. Roles are often managed via {grantRole} and {revokeRole}: this function's purpose is to provide a mechanism for accounts to lose their privileges if they are compromised (such as when a trusted device is misplaced). If the calling account had been revoked `role`, emits a {RoleRevoked} event. Requirements: - the caller must be `account`."
      },
      "revokeRole(bytes32,address)": {
        "details": "Revokes `role` from `account`. If `account` had been granted `role`, emits a {RoleRevoked} event. Requirements: - the caller must have ``role``'s admin role."
      },
      "supportsInterface(bytes4)": {
        "params": {
          "interfaceId": "An interface ID bytes4 as defined by ERC-165"
        },
        "returns": {
          "_0": "bool Indicates whether the interface is supported"
        }
      }
    },
    "version": 1
  },
  "userdoc": {
    "kind": "user",
    "methods": {
      "initialize()": {
        "notice": "Function for initializing the contract that can only be called once"
      },
      "supportsInterface(bytes4)": {
        "notice": "Returns whether a given interface ID is supported"
      }
    },
    "notice": "A factory contract for deploying Treasury Modules",
    "version": 1
  },
  "storageLayout": {
    "storage": [
      {
        "astId": 2720,
        "contract": "contracts/TreasuryModuleFactory.sol:TreasuryModuleFactory",
        "label": "_roles",
        "offset": 0,
        "slot": "0",
        "type": "t_mapping(t_bytes32,t_struct(RoleData)2715_storage)"
      },
      {
        "astId": 2189,
        "contract": "contracts/TreasuryModuleFactory.sol:TreasuryModuleFactory",
        "label": "_initialized",
        "offset": 0,
        "slot": "1",
        "type": "t_bool"
      },
      {
        "astId": 2192,
        "contract": "contracts/TreasuryModuleFactory.sol:TreasuryModuleFactory",
        "label": "_initializing",
        "offset": 1,
        "slot": "1",
        "type": "t_bool"
      },
      {
        "astId": 1352,
        "contract": "contracts/TreasuryModuleFactory.sol:TreasuryModuleFactory",
        "label": "versionControl",
        "offset": 0,
        "slot": "2",
        "type": "t_array(t_struct(VersionInfo)1764_storage)dyn_storage"
      }
    ],
    "types": {
      "t_address": {
        "encoding": "inplace",
        "label": "address",
        "numberOfBytes": "20"
      },
      "t_array(t_struct(VersionInfo)1764_storage)dyn_storage": {
        "base": "t_struct(VersionInfo)1764_storage",
        "encoding": "dynamic_array",
        "label": "struct IModuleFactory.VersionInfo[]",
        "numberOfBytes": "32"
      },
      "t_bool": {
        "encoding": "inplace",
        "label": "bool",
        "numberOfBytes": "1"
      },
      "t_bytes32": {
        "encoding": "inplace",
        "label": "bytes32",
        "numberOfBytes": "32"
      },
      "t_mapping(t_address,t_bool)": {
        "encoding": "mapping",
        "key": "t_address",
        "label": "mapping(address => bool)",
        "numberOfBytes": "32",
        "value": "t_bool"
      },
      "t_mapping(t_bytes32,t_struct(RoleData)2715_storage)": {
        "encoding": "mapping",
        "key": "t_bytes32",
        "label": "mapping(bytes32 => struct AccessControl.RoleData)",
        "numberOfBytes": "32",
        "value": "t_struct(RoleData)2715_storage"
      },
      "t_string_storage": {
        "encoding": "bytes",
        "label": "string",
        "numberOfBytes": "32"
      },
      "t_struct(RoleData)2715_storage": {
        "encoding": "inplace",
        "label": "struct AccessControl.RoleData",
        "members": [
          {
            "astId": 2712,
            "contract": "contracts/TreasuryModuleFactory.sol:TreasuryModuleFactory",
            "label": "members",
            "offset": 0,
            "slot": "0",
            "type": "t_mapping(t_address,t_bool)"
          },
          {
            "astId": 2714,
            "contract": "contracts/TreasuryModuleFactory.sol:TreasuryModuleFactory",
            "label": "adminRole",
            "offset": 0,
            "slot": "1",
            "type": "t_bytes32"
          }
        ],
        "numberOfBytes": "64"
      },
      "t_struct(VersionInfo)1764_storage": {
        "encoding": "inplace",
        "label": "struct IModuleFactory.VersionInfo",
        "members": [
          {
            "astId": 1759,
            "contract": "contracts/TreasuryModuleFactory.sol:TreasuryModuleFactory",
            "label": "semanticVersion",
            "offset": 0,
            "slot": "0",
            "type": "t_string_storage"
          },
          {
            "astId": 1761,
            "contract": "contracts/TreasuryModuleFactory.sol:TreasuryModuleFactory",
            "label": "frontendURI",
            "offset": 0,
            "slot": "1",
            "type": "t_string_storage"
          },
          {
            "astId": 1763,
            "contract": "contracts/TreasuryModuleFactory.sol:TreasuryModuleFactory",
            "label": "impl",
            "offset": 0,
            "slot": "2",
            "type": "t_address"
          }
        ],
        "numberOfBytes": "96"
      }
    }
  }
}